:020000020000FC
:100000009FE99DBF68E07CE088E0A9E0FA2EADE0C2
:10001000EA2EA9E0DA2E40E047BB48BB0ED140EF04
:1000200046B940E043B942E247B940E144BB35E05C
:100030005CD194B085B0A82D0F931F932F933F935D
:100040004F932A2F3FE448E01127032F069508F429
:10005000120F179507954A95D1F74FE24395005136
:100060001742E0F73AE33A9508511C4FE0F32FE2CC
:10007000239504561040E0F71AE31A95065FE8F35B
:10008000005D002E112E222E332E442E4F913F91D3
:100090002F911F910F91A0EC9A2F71D0A42D9A2F20
:1000A0009DD0A32D9A2F9AD0A22D9A2F97D0AEE350
:1000B0009A2F94D0A12D9A2F91D0A02D9A2F8ED027
:1000C000A8EC9A2F5CD0A0E59A2F88D0A3E59A2FB0
:1000D00085D0A9E49A2F82D041E047BB0AD143E002
:1000E00047BB07D1089543E047BB03D141E047BB7D
:1000F00000D140E047BBFDD0089540E047BB48BB7E
:10010000F8D0089543E047BBF4D042E047BBF1D0BC
:1001100040E047BBEED042E047BBEBD043E047BBFB
:10012000E8D0089543E047BBE4D043E047BBE1D0CB
:1001300041E047BBDED043E047BBDBD043E047BBF9
:10014000D8D0089542E047BBD4D040E047BBD1D0DF
:1001500042E047BBCED043E047BBCBD0089510E090
:1001600022E0502F5078503811F0DCDF01C0CADF98
:10017000000F13951830A9F742E047BB0895BDDF83
:10018000ABDF0EE4ECDFDEDF907F962B092FE7DF9D
:10019000D9DF9A2F907F972B092FE1DFD3DF9A2F9A
:1001A000907F982B092FDBDFCDDF9A2F9295907FE0
:1001B000962B092FD4DFC6DF9A2F9295907F972B2D
:1001C000092FCDDFBFDF9A2F9295907F982B092FB3
:1001D000C6DFB8DF88DF34E17BD008958EDF7CDFB7
:1001E0000EE4BDDFAFDF907F9F29092FB8DFAADFC4
:1001F0009A2F907F9E29092FB2DFA4DF9A2F907F3C
:100200009D29092FACDF9EDF9A2F9295907F9F2921
:10021000092FA5DF97DF9A2F9295907F9E29092FAE
:100220009EDF90DF9A2F9295907F9D29092F97DF6F
:1002300089DF59DF35E059D0089532E349D05DDFD9
:100240004BDF0EE48CDF7EDF0CE389DF7BDF08E32E
:1002500086DF78DF48DF34E13BD04FDF3DDF0EE45F
:100260007EDF70DF0CE37BDF6DDF08E378DF6ADFC2
:100270003ADF34E12DD041DF2FDF0EE470DF62DFA3
:100280000CE36DDF5FDF08E36ADF5CDF2CDF34E166
:100290001FD033DF21DF0EE462DF54DF0CE25FDFCB
:1002A00051DF08E25CDF4EDF1EDF34E111D0A8E24F
:1002B0009A2F65DFAEE09A2F62DFA6E09A2F5FDF0C
:1002C000A1E09A2F5CDF089507D02197E9F7089500
:1002D00003D03A95E9F70895CF93DF93C5EFD0E0C7
:1002E0002197F1F7DF91CF91089503D03A95E9F77F
:0A02F00008950000000000000895CA
:00000001FF
